{
    "contractName": "PerSec",
    "abi": [
        {
            "inputs": [],
            "stateMutability": "nonpayable",
            "type": "constructor"
        },
        {
            "anonymous": false,
            "inputs": [
                {
                    "indexed": false,
                    "internalType": "uint256",
                    "name": "fileId",
                    "type": "uint256"
                },
                {
                    "indexed": false,
                    "internalType": "string",
                    "name": "fileHash",
                    "type": "string"
                },
                {
                    "indexed": false,
                    "internalType": "uint256",
                    "name": "fileSize",
                    "type": "uint256"
                },
                {
                    "indexed": false,
                    "internalType": "string",
                    "name": "fileType",
                    "type": "string"
                },
                {
                    "indexed": false,
                    "internalType": "string",
                    "name": "fileName",
                    "type": "string"
                },
                {
                    "indexed": false,
                    "internalType": "string",
                    "name": "fileDescription",
                    "type": "string"
                },
                {
                    "indexed": false,
                    "internalType": "uint256",
                    "name": "uploadTime",
                    "type": "uint256"
                },
                {
                    "indexed": false,
                    "internalType": "address payable",
                    "name": "uploader",
                    "type": "address"
                }
            ],
            "name": "FileUploaded",
            "type": "event"
        },
        {
            "inputs": [],
            "name": "fileCount",
            "outputs": [
                {
                    "internalType": "uint256",
                    "name": "",
                    "type": "uint256"
                }
            ],
            "stateMutability": "view",
            "type": "function"
        },
        {
            "inputs": [
                {
                    "internalType": "uint256",
                    "name": "",
                    "type": "uint256"
                }
            ],
            "name": "files",
            "outputs": [
                {
                    "internalType": "uint256",
                    "name": "fileId",
                    "type": "uint256"
                },
                {
                    "internalType": "string",
                    "name": "fileHash",
                    "type": "string"
                },
                {
                    "internalType": "uint256",
                    "name": "fileSize",
                    "type": "uint256"
                },
                {
                    "internalType": "string",
                    "name": "fileType",
                    "type": "string"
                },
                {
                    "internalType": "string",
                    "name": "fileName",
                    "type": "string"
                },
                {
                    "internalType": "string",
                    "name": "fileDescription",
                    "type": "string"
                },
                {
                    "internalType": "uint256",
                    "name": "uploadTime",
                    "type": "uint256"
                },
                {
                    "internalType": "address payable",
                    "name": "uploader",
                    "type": "address"
                }
            ],
            "stateMutability": "view",
            "type": "function"
        },
        {
            "inputs": [],
            "name": "name",
            "outputs": [
                {
                    "internalType": "string",
                    "name": "",
                    "type": "string"
                }
            ],
            "stateMutability": "view",
            "type": "function"
        },
        {
            "inputs": [
                {
                    "internalType": "string",
                    "name": "_fileHash",
                    "type": "string"
                },
                {
                    "internalType": "uint256",
                    "name": "_fileSize",
                    "type": "uint256"
                },
                {
                    "internalType": "string",
                    "name": "_fileType",
                    "type": "string"
                },
                {
                    "internalType": "string",
                    "name": "_fileName",
                    "type": "string"
                },
                {
                    "internalType": "string",
                    "name": "_fileDescription",
                    "type": "string"
                }
            ],
            "name": "uploadFile",
            "outputs": [],
            "stateMutability": "nonpayable",
            "type": "function"
        }
    ],
    "bytecode": "60c0604052600660808190526550657253656360d01b60a0908152610027916000919061003f565b50600060015534801561003957600080fd5b50610113565b82805461004b906100d8565b90600052602060002090601f01602090048101928261006d57600085556100b3565b82601f1061008657805160ff19168380011785556100b3565b828001600101855582156100b3579182015b828111156100b3578251825591602001919060010190610098565b506100bf9291506100c3565b5090565b5b808211156100bf57600081556001016100c4565b600181811c908216806100ec57607f821691505b6020821081141561010d57634e487b7160e01b600052602260045260246000fd5b50919050565b6108f7806101226000396000f3fe608060405234801561001057600080fd5b506004361061004c5760003560e01c806306fdde0314610051578063439535191461006f578063e82d9d3314610086578063f4c714b41461009b575b600080fd5b6100596100c2565b604051610066919061064e565b60405180910390f35b61007860015481565b604051908152602001610066565b61009961009436600461070b565b610150565b005b6100ae6100a93660046107c2565b6102fd565b6040516100669897969594939291906107db565b600080546100cf9061085d565b80601f01602080910402602001604051908101604052809291908181526020018280546100fb9061085d565b80156101485780601f1061011d57610100808354040283529160200191610148565b820191906000526020600020905b81548152906001019060200180831161012b57829003601f168201915b505050505081565b600085511161015e57600080fd5b600083511161016c57600080fd5b600081511161017a57600080fd5b600082511161018857600080fd5b3361019257600080fd5b6000841161019f57600080fd5b600180549060006101af83610898565b909155505060408051610100810182526001805480835260208084018a81528486018a9052606085018990526080850188905260a085018790524260c08601523360e086015260009283526002825294909120835181559351805193949361021e938501929190910190610568565b506040820151600282015560608201518051610244916003840191602090910190610568565b5060808201518051610260916004840191602090910190610568565b5060a0820151805161027c916005840191602090910190610568565b5060c0820151600682015560e090910151600790910180546001600160a01b0319166001600160a01b039092169190911790556001546040517f6e95bbaa37a5fdec42a312e049dea2fe6160ebe659214d3409b4f91f164c2f52916102ee9188908890889088908890429033906107db565b60405180910390a15050505050565b6002602052600090815260409020805460018201805491929161031f9061085d565b80601f016020809104026020016040519081016040528092919081815260200182805461034b9061085d565b80156103985780601f1061036d57610100808354040283529160200191610398565b820191906000526020600020905b81548152906001019060200180831161037b57829003601f168201915b5050505050908060020154908060030180546103b39061085d565b80601f01602080910402602001604051908101604052809291908181526020018280546103df9061085d565b801561042c5780601f106104015761010080835404028352916020019161042c565b820191906000526020600020905b81548152906001019060200180831161040f57829003601f168201915b5050505050908060040180546104419061085d565b80601f016020809104026020016040519081016040528092919081815260200182805461046d9061085d565b80156104ba5780601f1061048f576101008083540402835291602001916104ba565b820191906000526020600020905b81548152906001019060200180831161049d57829003601f168201915b5050505050908060050180546104cf9061085d565b80601f01602080910402602001604051908101604052809291908181526020018280546104fb9061085d565b80156105485780601f1061051d57610100808354040283529160200191610548565b820191906000526020600020905b81548152906001019060200180831161052b57829003601f168201915b5050505060068301546007909301549192916001600160a01b0316905088565b8280546105749061085d565b90600052602060002090601f01602090048101928261059657600085556105dc565b82601f106105af57805160ff19168380011785556105dc565b828001600101855582156105dc579182015b828111156105dc5782518255916020019190600101906105c1565b506105e89291506105ec565b5090565b5b808211156105e857600081556001016105ed565b6000815180845260005b818110156106275760208185018101518683018201520161060b565b81811115610639576000602083870101525b50601f01601f19169290920160200192915050565b6020815260006106616020830184610601565b9392505050565b634e487b7160e01b600052604160045260246000fd5b600082601f83011261068f57600080fd5b813567ffffffffffffffff808211156106aa576106aa610668565b604051601f8301601f19908116603f011681019082821181831017156106d2576106d2610668565b816040528381528660208588010111156106eb57600080fd5b836020870160208301376000602085830101528094505050505092915050565b600080600080600060a0868803121561072357600080fd5b853567ffffffffffffffff8082111561073b57600080fd5b61074789838a0161067e565b965060208801359550604088013591508082111561076457600080fd5b61077089838a0161067e565b9450606088013591508082111561078657600080fd5b61079289838a0161067e565b935060808801359150808211156107a857600080fd5b506107b58882890161067e565b9150509295509295909350565b6000602082840312156107d457600080fd5b5035919050565b60006101008a83528060208401526107f58184018b610601565b9050886040840152828103606084015261080f8189610601565b905082810360808401526108238188610601565b905082810360a08401526108378187610601565b60c084019590955250506001600160a01b039190911660e0909101529695505050505050565b600181811c9082168061087157607f821691505b6020821081141561089257634e487b7160e01b600052602260045260246000fd5b50919050565b60006000198214156108ba57634e487b7160e01b600052601160045260246000fd5b506001019056fea2646970667358221220bbd41f0827c97f7e6f0d6bef09ed6644d42f7644637781a65711b7df3d4b235964736f6c634300080a0033",
    "sourcePath": "d:/Personal Security System/src/contracts/PerSec.sol",
    "compiler": {
        "name": "solc",
        "version": "0.8.10+commit.fc410830"
    },
    "functionHashes": {
        "fileCount()": "43953519",
        "files(uint256)": "f4c714b4",
        "name()": "06fdde03",
        "uploadFile(string,uint256,string,string,string)": "e82d9d33"
    },
    "gasEstimates": {
        "creation": {
            "codeDepositCost": "459000",
            "executionCost": "infinite",
            "totalCost": "infinite"
        },
        "external": {
            "fileCount()": "2295",
            "files(uint256)": "infinite",
            "name()": "infinite",
            "uploadFile(string,uint256,string,string,string)": "infinite"
        }
    }
}